S00D000052544F53322E737265639D
S1130000D86000201901000015010000150100004E
S113001000000000000000000000000000000000DC
S113002000000000000000000000000015010000B6
S11300300000000000000000C10C0000050D0000DD
S11300401501000015010000150100001501000054
S11300501501000015010000150100001501000044
S11300601501000015010000150100001501000034
S11300701501000015010000150100001501000024
S11300801501000015010000150100001501000014
S11300901501000000000000000000001501000030
S11300A015010000150100001501000015010000F4
S11300B00000000010B5064C2378002B07D1054B37
S11300C0002B02D0044800E000BF0123237010BDC0
S11300D07404002000000000A0260000084B10B5A6
S11300E0002B03D00749084800E000BF0748036815
S11300F0002B00D110BD064B002BFBD09847F9E72D
S11301000000000078040020A0260000A0260000C3
S113011000000000FEE70000F8B52A4A2A4B9A4284
S113012011D01A00294B9A420DD2294A03339B1A43
S11301309B0801339B000022234822498C58845099
S113014004329A42FAD1234A234B9A420AD2D34325
S113015021495B1803218B4304339B18002102C2FD
S11301609342FCD11D4AFF211D4B8B439360FD3903
S113017090235B001B4AD1501B4AD3780325AB4321
S113018002242343D370D3780C27BB43082633437C
S1130190D370164B987B30229043202210439873DF
S11301A0997BB943314399739A7BAA4322439A7347
S11301B00F4A536880210B4353600E4B98470E4BF4
S11301C09847FEE7A02600000000002074040020E9
S11301D00400002074040020D840002000ED00E05A
S11301E00000000000700041005000410048004140
S11301F00040004199230000C1050000014A024B60
S11302001A60704740420F0000000020F0B585B02E
S11302103B4D3C4E1DE03C4F3B785B065B0F3B4A3D
S113022011780A07120FC906C90F394C2078000744
S1130230000F029020784006400F019038780007A4
S1130240000F00903348344FB847FA208000334BF6
S113025098472B78DB06DB0F31780A07120F8906E3
S1130260890F2F4F38780007000F02903878000963
S1130270019028780007000F00902A48264FB847BD
S1130280224B1B785A061CD59B06C4D51E4F3B78BF
S11302905B065B0F1D4A11780A07120FC906C90FC6
S11302A01B4C20780007000F029020784006400F76
S11302B0019038780007000F00901B48164FB8478C
S11302C0C3E7114F3B785B065B0F104A10780207B7
S11302D0120F8106C90F4900C006C00F01430C4C20
S11302E020780007000F029020784006400F01900C
S11302F038780007000F00900C48074FB847A4E770
S1130300A8400020A0400020AC4000209C400020D9
S113031094400020E425000029070000F1190000A2
S1130320B0400020BC250000D0250000F8250000C6
S1130330F0B5CE4600B52E4D3A23994603E0FA2097
S113034080002C4B98472C4B1B781A07120F303225
S11303502A705B065B0F30336B704B46AB70274BD8
S11303601B781A07120F3032EA705B065B0F3033CA
S11303702B714B466B71224B1B781A07120F3032CC
S1130380AA71DB06DB0F3033EB715F232B721D4B3D
S11303901B781A07120F30326A721B093033AB72A2
S11303A02D21E972184B1B781A07120F30322A7369
S11303B0DB06DB0F30336B73A973144B1B785B07BD
S11303C05B0F3033EB730A232B7403336B741126E6
S11303D00F4C074F0122237E1342FCD0BB5D2385C3
S11303E031000C480C4B9847013EF3D2A7E7C046B6
S11303F090040020F119000094400020AC4000203B
S11304009C400020B0400020A840002098400020DC
S1130410001C00420C2600002907000070B5154E90
S1130420154C164D68210020B04707222100682092
S1130430A847134B1A78134B1A70134B1A78134BA3
S11304401A70134B1A78134B1A70134B1A78134BF8
S11304501A70134B1A78134B1A70134B1A78134BE8
S11304601A70134B1A78134B1A70FA20124B9847D0
S1130470D8E7C046B90A000004000020410A000081
S11304809D400020944000209B400020AC40002070
S1130490A44000209C400020904000209840002070
S11304A0A7400020A040002091400020A840002048
S11304B0A2400020B0400020F1190000F0B5C6466B
S11304C000B52E4B19780F2081437024A143197075
S11304D02B4A1378834303252B43DBB2A343202603
S11304E033431370274D2C78844304222243EF2492
S11304F014403443E4B2402214432C70224A167848
S11305000725AE4302252E431670204D2A788243D8
S113051006273A43CF273A401027BC4667463A435A
S11305202A701B4DA8462D7885433D4347463D70B0
S1130530184FB8463F788743082007430F203840B8
S11305406746384347463870134F397013490B7068
S1130550134B1C70134B1E70134B1A70134B1D70EE
S1130560134B18700023072212491C316820124CC7
S1130570A047124B984704BC9046F0BD944000201D
S1130580AC4000209C40002098400020A040002067
S1130590A8400020B040002095400020A540002045
S11305A0994000209A400020A3400020A64000204B
S11305B0A140002004000020BD0900002D0A000015
S11305C0F0B585B01C4B98471C4A136A1C490B4074
S11305D013621C4A1C4B9A621C4B9847E120000290
S11305E01B4B98471B4B98471B4B98478026F6009C
S11305F00024039402940194012300930023320005
S113060016491748174DA8470394029401940227EA
S113061000970023320014491448A8470394029415
S1130620019400970023320011491248A847124B45
S11306309847002005B0F0BDFD010000000800400F
S1130640FFFCFFFFC80F005000440041FD0A0000FA
S1130650990B000025090000BD04000010260000CD
S11306601D04000089150000182600003103000055
S1130670282600000D02000061170000024A1368DA
S1130680591C116018707047A404002010B5302361
S1130690092805D9064B1A793723002A00D12033BB
S11306A01818C0B2034B98470122014B5A7110BD70
S11306B0A40400207D06000010B50E4B1A899A6030
S11306C0824210D30023121A0133DBB29042FAD9CA
S11306D008498A604A79002A01D1002B02D0180007
S11306E0054B984710BD034B5B79002BFAD00023D0
S11306F0F5E7C046A40400208D0600000A2808D0AF
S1130700084901220B7E1342FCD080B2054B1885A8
S11307107047044901220B7E1342FCD00D22014B89
S11307201A85EDE7000800420FB4F0B5DE465746DF
S11307304E464546E0B587B010AB80CB0593734B6E
S11307400C330293714B9A46714B984653460C33C3
S113075003938CE07B78302B29D002370022934618
S113076000241A00303A092A0CD8A200A418640004
S1130770303CE418E4B27A1C3B7817001900303995
S11307800929F2D9614A0299116000225F494A712C
S1130790632B00D17DE00FD8252B00D186E0582BA8
S11307A011D0002B00D1A6E0584D0C353CE0BB78AD
S11307B0033701229346D3E7732B72D01BD9752BD1
S11307C01BD0782BF0D1514D583B594259412971D6
S11307D0059B1A1D05921B68AB60802040014D4E9D
S11307E0B04780204000B0471020B047287A4A4BD9
S11307F098470C3518E0642BD6D1059A111D059144
S1130800126842498A60642B3BD04448414DA84752
S1130810FA208000A8476420A8470A20A8473B4D37
S1130820287A3D4B98470C350023524612681370C2
S11308306B1C994653464A461A602878002855D0BE
S1130840002C0CD0AA1C631EDBB21100561E367895
S1130850002E3CD001321C1EF5D12C4B1960287897
S11308604D46C04701356B1E18780028F9D13878F9
S1130870002840D0252800D16CE70137244B984745
S1130880F5E7002AC1DA52428A602D20244B9847AA
S1130890BBE7059B1A1D05921878214B9847039DC9
S11308A0C2E7059B1A1D05921D68BDE725201C4B58
S11308B09847164D0C35B7E71E000198A047731EE4
S11308C0DBB2002EF8D128780028C9D1CFE70F4A2F
S11308D01160023CE6B2002BC2D020245B46002B00
S11308E000D03024E3B20193094CE6E7661EF6B269
S11308F0002CF2D1BBE707B03CBC90469946A24617
S1130900AB46F0BC08BC04B01847C046A4040020A1
S1130910FD060000B90600008D0600001027000047
S11309207D0600001E4B072256215A5401315A54A9
S11309303432995C022001439954995C1E3001437E
S11309409954184A136A20210B431362164B174A11
S11309505A805968164A0A435A6080225200154B3D
S11309605A601A00D369002BFCD1124AD368FF21C4
S11309708B43DD390B43D360D369002BFCD10E4A82
S11309800C4B1A601A00D369002BFCD1094A538B13
S113099010210B435383D369002BFCD17047C0460D
S11309A00044004100040040000C004017440000D3
S11309B004060100001400421600300070B582B035
S11309C0184D6C68184E34406C60EC69002CFCD1F6
S11309D04000144C6062207EC007FCD52820114CD6
S11309E023542000037EDB07FCD500230193019BE5
S11309F09A420FDD0B482824019B9B005B581B780F
S1130A000355037EDB07FCD5019B01330193019B56
S1130A109342F1DB034A5168C0239B020B435360AA
S1130A2002B070BD00140042FFFFFBFF034A51688F
S1130A30C0239B020B4353607047C046001400421E
S1130A40F0B5400001231843184B58621800037E88
S1130A509B07FCD515484368154C23404360531E3F
S1130A60002B0EDD0C00134BD518AD004D192826B4
S1130A70835D27683B70037E9B07FCD50434AC423E
S1130A80F6D10A4B5C688020C002204358605C6841
S1130A90C020800220435860064884466244920085
S1130AA0525828215B5C1370F0BDC046001400420C
S1130AB0FFFFFBFFFFFFFF3F10B50E4A53680E4CCC
S1130AC023405360D369002BFCD14900094B596280
S1130AD01A00137EDB07FCD5C0B22823054AD05484
S1130AE0137EDB07FCD5034A5168C0239B020B43EA
S1130AF0536010BD00140042FFFFFBFF1F4A136A3E
S1130B0004210B4313621E4B832252025A601D4A76
S1130B105A801D4B03394A229954063101329954A3
S1130B202E315A5C0F208243022002435A54585CEF
S1130B300F220240202002435A54144B1A683339BE
S1130B408A431A60124A1A601A00D369002BFCD136
S1130B50104A0E4B9A811A00D369002BFCD1C02293
S1130B6092020A4B5A601A00D369002BFCD1074A3F
S1130B70136802210B4313607047C0460004004011
S1130B80000C0040144000000044004100080042F2
S1130B900400314015FBFFFF70B5134B1968A823FF
S1130BA0124AD150124A136A80210B431362114A2C
S1130BB0114B5A80114C124B2360C0239B0263607B
S1130BC0000140420F4942180023110C1004801AFE
S1130BD099410C4A00230C4DA84780B2A081236898
S1130BE002221343236070BD3426000000440041F8
S1130BF00004004019400000000C0040001C0042AA
S1130C000400314000127A0085210000034B1B6868
S1130C10013301D072B6FEE772B6FEE73C00002055
S1130C20064A13681868203080F30988022080F38C
S1130C3014883FBCAE4662B600BDC046883F002063
S1130C4010B5031F802464041C60043B1960043B3A
S1130C5002491960143B1A60403810BD0D0C0000A5
S1130C6080225205034B1A60BFF34F8FBFF36F8F7F
S1130C707047C04604ED00E072B6044A13680133BD
S1130C801360BFF34F8FBFF36F8F70473C0000209A
S1130C90064B1B68002B01D172B6FEE7013B034AE9
S1130CA01360002B00D162B67047C0463C000020A0
S1130CB0EFF3108072B67047002080F310887047FD
S1130CC0EFF309800E4B1A6820381060F0C04446D8
S1130CD04D4656465F46F0C008B572B600F0F8FEC1
S1130CE062B60CBC116808681030F0C8A046A9466A
S1130CF0B246BB4680F309882038F0C81847C0467E
S1130D00883F002010B5074B98470400064B9847CE
S1130D10002803D080225205044B1A602000044BA3
S1130D20984710BDB10C0000F117000004ED00E07D
S1130D30BB0C00000022044B1A60044A044B1A60E6
S1130D400722044B1A60704718E000E03F1F0000C0
S1130D5014E000E010E000E010B50A4B1968FF222F
S1130D6012040A431A601968FF2212060A431A6021
S1130D70054B98470022054B1A60054B9847054BD5
S1130D809847C04620ED00E0350D00003C000020EF
S1130D90210C00000D0C000070B50400430702D0C4
S1130DA007239C430834114B9847114B1B68002BB5
S1130DB010D0104BDB69E4180F4A944211D8A342B7
S1130DC011D20B4A1568ED180A4BDC610B4B98479E
S1130DD0280070BD064A13000C3307218B431360AF
S1130DE0E7E70025F2E70025F0E7C046C117000059
S1130DF0BC0400203C3F00208F3A00000119000091
S1130E00002801D072B6FEE7704703000833436040
S1130E10012252428260C360036100230360704771
S1130E2000230361704743684B609A688A609A683C
S1130E30516099600861036801330360704730B5FD
S1130E400C6802000832631C02D1026904E01A0033
S1130E5053681D68AC42FAD253684B6099608A604B
S1130E605160086103680133036030BD036942685F
S1130E70816891608268416851605A68904205D0E7
S1130E80002202611A68501E1860704782685A6016
S1130E90F6E7000070B504001500026C002A0BD1BF
S1130EA00368002B04D14068174B98470023636004
S1130EB0A36B0133A36370BD002D0DD18068134B68
S1130EC09847A368226C94466344A3606268934283
S1130ED0EED32368A360EBE7C0680C4B9847236C00
S1130EE05B42E268D218E26021688A4203D26268F7
S1130EF094466344E360022DDAD1A36B002BD7D070
S1130F00A36B013BA363D3E7B91D0000E1230000F9
S1130F1010B582B001900A00C46C002C05D0A16BFE
S1130F20E36B994203D372B6FEE772B6FEE7A16B98
S1130F3000208B4201D802B010BD01A92000064B4D
S1130F4098470020636A002BF5D020002430034B1F
S1130F509847431E9841EEE7950E0000F91B0000E8
S1130F6070B50C00016800290BD0026CC3689B1893
S1130F70C3604568AB4200D3C160C1682000014B27
S1130F80984770BDE1230000F8B50400254B98474D
S1130F90A36C002B1EDD244D244E0DE0636A002B50
S1130FA018D020002430B047002810D1A36C013B96
S1130FB0A364A36C002B0DDDE36C002BEED00021A9
S1130FC02000A8470128F1D1194B9847EEE7184BA8
S1130FD09847EBE701235B42A364164B9847114BF8
S1130FE09847636C002B16DD2369002B13D0250072
S1130FF010350E4F0E4E08E0636C013B6364636C66
S1131000002B08DD2369002B05D02800B8470028F1
S1131010F2D0B047F0E701235B426364054B984785
S1131020F8BDC046790C0000110F0000F91B000048
S1131030051D0000910C000070B504000D0000288F
S113104020D0174B98472268216CE36B4B43D01890
S113105060600020A063A2605B1AD318E3600123E0
S11310605B426364A364002D11D12369002B05D076
S1131070200010300B4B9847012805D00A4B9847A5
S1131080012070BD72B6FEE7084B9847F6E72000D2
S11310901030074DA84720002430A847EEE7C0468B
S11310A0790C0000F91B0000910C0000610C000099
S11310B00B0E000070B505000E00002819D050205A
S11310C00D4B9847041E14D03000684301300A4B7E
S11310D098472060002809D0E56326640121200098
S11310E0064B98470023E364200070BD2000044BA6
S11310F0984772B6FEE7C046990D0000391000000B
S1131100010E0000F0B5CE46474680B585B0040018
S11311100F0001921D0000280CD000290CD0022DD4
S11311200FD0484B9847002810D1019B002B11D0B9
S113113072B6FEE772B6FEE7036C002BEFD072B610
S1131140FEE7E36B012BECD072B6FEE700263E4BC4
S1131150984647E00026FAE72A00390020003B4B76
S11311609847E36C002B0FD029002000384B984798
S1131170012801D1374B9847374B9847012005B0D8
S11311800CBC90469946F0BD636A002BF4D0200055
S11311902430324B98470128EED12E4B9847EBE789
S11311A02D4B98470020EAE72B4B984701A902A84A
S11311B02B4B984700283ED1234B9847A36B994665
S11311C0E66B254B9847B1452FD12000103001998B
S11311D0244B98472000244B9847244B98470028D9
S11311E020D00126C047A36BE26B9342B4D3022DF7
S11311F0B2D0019B002BD3D0002E02D102A81C4BED
S11312009847154B98471B4B98470F4B9847636C6F
S1131210013301D100236364A36C0133C4D10023DF
S1131220A364C1E70B4B9847DBE720000E4B9847BC
S11312300E4B9847D5E720000B4B98470B4B98472C
S113124000209CE71D1D0000790C0000950E000095
S1131250110F0000610C0000910C0000F91B00004C
S1131260951C0000711B0000890F0000011900008B
S1131270751C0000C1170000F0B583B004000F0016
S113128016001D00002811D0002911D0022D14D001
S1131290264B98470190A36BE26B9A422ED8002507
S11312A00198234B9847280003B0F0BD72B6FEE7BF
S11312B0036C002BEAD072B6FEE7E36B012B19D066
S11312C072B6FEE70125636A002BE9D020002430C2
S11312D0184B98470028E3D0002E09D0012333602F
S11312E0DEE7A36C0133A3640125D9E70125D7E721
S11312F00125D5E70D4B98470190A36B2A003900CF
S113130020000D4B9847A36C0133EAD1E36C002B0A
S1131310D8D029002000094B984701250128BFD1C6
S1131320002EE3D001233360BAE7C046B10C0000BD
S1131330BB0C0000F91B0000950E0000110F00000B
S1131340F0B5C64600B584B004000E0001921F003B
S113135000280AD000290AD04D4B984700280BD109
S1131360019B002B0CD072B6FEE772B6FEE7036C4D
S1131370002BF1D072B6FEE70025464B984642E0BA
S11313800025FAE7E56831002000434B9847002F19
S11313901AD1A36B013BA3632368002B02D13F4BFB
S11313A0984760602369002B07D0200010303C4B25
S11313B09847012801D13B4B98473B4B9847012064
S11313C004B004BC9046F0BDE560636A002BF4D021
S11313D020002430324B98470028EED0314B9847F8
S11313E0EBE7314B98470020EAE72A4B98476068BF
S11313F02E4B98472C4B984733E020002C4B9847B2
S11314002C4B98470125C047A36B002BBAD1019BF5
S1131410002BE6D0002D02D102A8274B9847224B7F
S11314209847264B98471B4B9847636C013301D16F
S113143000236364A36C013301D10023A3641A4B1A
S1131440984701A902A81E4B9847002818D1114BB0
S11314509847A56B144B9847002DCED12368002BD9
S1131460C3D0200024300199164B98472000104B1C
S11314709847104B98470028C4D10A4B9847C1E7B6
S113148020000B4B98470B4B9847002098E7C04629
S11314901D1D0000790C0000610F0000111D0000EB
S11314A0F91B0000610C0000910C0000391D0000C4
S11314B0890F000001190000751C0000C11700000D
S11314C0951C0000711B000070B504000D000E4B4C
S11314D09847636C01330BD0A36C01330BD00B4BD7
S11314E09847A36B002B09D02000094B984770BD87
S11314F000236364F0E70023A364F0E720002430B2
S11315002900044B9847EFE7790C0000910C000088
S1131510890F0000C11B0000084B9B6A1B68002B4D
S113152007D0064B9B6ADB68DB685A68044B1A6079
S1131530704701225242024B1A60F9E75C3F0020D7
S11315404000002010B504000C4BDA6A50601B6B9D
S113155098420CD3094B986AD96A0431084B9847CE
S1131560084B1B689C4208D2064B1C6005E0034BE9
S1131570586BD96A0431024B984710BD5C3F002078
S11315803F0E000040000020F0B5DE4657464E46B0
S1131590C0B582B005000F00160001930A9B99465E
S11315A0002803D0042B03D972B6FEE772B6FEE717
S11315B040205F4B9847041E0DD00C9B002B00D09D
S11315C09DE0B0005A4B98472063002800D098E073
S11315D02000584B9847012040427EE001370133F8
S11315E08B4204D03878187038780028F6D100225D
S11315F03B23E2544B46E362E363231D009318004C
S11316004D4FB84720001830B847246105234A4697
S11316109B1AA3616462019A29003000474B9847E2
S113162020600B9B002B00D01C60454B9847454B1A
S11316309A6B01329A63DB6A002B54D1414BDC6212
S11316409B6B012B27D13F4E30003C303E4DA847C9
S113165030005030A84730006430A847300078305C
S1131660A84730008C30A847384F20239B46BB4402
S11316705846A84734239A46BA445046A8473000EF
S11316801430A84738004830A8473000A8475B46C4
S1131690B362534673632D4A136E01331366E36AD0
S11316A0526E934201D9294A53669800C3189B008D
S11316B024483C30C0180099254B9847254B98473F
S11316C0224BDB6D0120002B07D01E4BDB6ADB6A4B
S11316D0994502D9204B9847012002B01CBC914681
S11316E09A46A346F0BD194BDB6D002BD3D1154BA5
S11316F0DB6ADB6A9945CED3124BDC62CBE70C9BE9
S11317000363164BF3189B00226B94466344072231
S113171093431E003A783423E2543B78002B00D1E3
S113172065E701372300353321003C315AE7C046D1
S1131730990D0000010E0000210E0000410C000074
S1131740790C00005C3F00200B0E0000DC3F002001
S1131750270E0000910C0000610C0000FFFFFF3F0A
S113176010B584B000230393029301930093642281
S11317700C490D480D4CA047012803D000280ED178
S113178072B6FEE70A4B98470128F7D172B60122D8
S1131790084BDA650022084B1A63084B984704B0DB
S11317A010BDC04638260000451A00008915000007
S11317B0AD1E0000DC3F00205C3F0020590D0000FE
S11317C0024AD36E0133D3667047C046DC3F002023
S11317D010B5044B9847044B1C6B044B98472000EE
S11317E010BDC046790C00005C3F0020910C000045
S11317F0F8B5D6464F4680B53B4BDB6E002B63D124
S11318003A4B1A6B01321A631D6B002D10D19B6A7F
S11318101B68002B01D072B6FEE7344B9A6A596BF1
S113182099625A63304A136F01331367304B9847F8
S1131830304B1B6800249D4237D300242B4B9A461F
S11318403C2294466344994653469B6A1B68002B8A
S113185027D0264B9B6ADB68DF687B689D4230D3C8
S11318603E1D3000244B9847BB6A002B03D0380040
S11318701830214B9847FB6A1B4A526E934201D998
S1131880194A53669800C0188000484431001B4B25
S11318909847164BDB6AFA6ADB6A9A42D4D301246E
S11318A0D2E701225242134B1A60104AD36AD96A12
S11318B08B005B189B00D318DB6B012B09D9012427
S11318C007E00C4A1360F0E7074A536F013353678C
S11318D00024054B9B6F002B00D0012420000CBC7E
S11318E091469A46F8BDC046DC3F00205C3F00208C
S11318F019150000400000206D0E0000270E0000A6
S1131900F0B583B0324BDB6E002B01D172B6FEE72B
S1131910304B98472E4BDA6E013ADA66DB6E0024C0
S1131920002B03D12C4B9B6B002B2CD12B4B9847BA
S1131930200003B0F0BD9800C01880003818019949
S1131940274B9847244BDB6AF26ADB6A9A4215D22A
S11319506369002B1AD0204B1B6ADE6830001830F4
S1131960204DA847331D01931800A847F36A184A6D
S1131970526E9342DFD9164A5366DCE70122144BB8
S11319809A67154CE4E7144F3C37FAE7104B5B6F4A
S1131990002B13D00E4B5B6F002B0FD0124E0C4D4F
S11319A02C0005E0636F013B6367636F002B05D078
S11319B0B0470028F6D00123AB67F3E7044B9B6FD5
S11319C00024012BB2D1094B98470134AEE7C0463D
S11319D0DC3F0020790C00005C3F0020910C0000EB
S11319E0270E00006D0E0000F1170000610C0000CE
S11319F010B5041E15D00C4BDB6E002B01D072B653
S1131A00FEE70A4B98470A4B1A6BA418D86A0430AD
S1131A10084B98472000084B9847084B98470028E4
S1131A2001D1074B984710BDDC3F0020C1170000CF
S1131A305C3F00206D0E00004515000001190000F8
S1131A40610C0000F8B5CE46474680B5174B984662
S1131A50174F184E28E0184BDB6B012B22D8AB6EC6
S1131A60002BF8D0C047BC6CB047002CF7D0134B08
S1131A7098470F4B99465B6DDC68201D104B9847C7
S1131A800D4A936B013B93634B469B6E013B4A4665
S1131A9093660C4B9847206B0B4B99469847200054
S1131AA0C847DCE7094B9847014DD8E7C117000048
S1131AB0DC3F0020011900005C3F0020790C00008D
S1131AC06D0E0000910C0000010E0000610C00007E
S1131AD010B5254BDB6E002B22D1234B00229A67D5
S1131AE05A6E93009B189B00204AD318DB6B002B83
S1131AF01AD11D4B5B6E002B10D01B4A1B4C1000DF
S1131B00536E013B5366516E8B005B189B00E318C8
S1131B10DB6B002B08D1436E002BF1D172B6FEE7CC
S1131B200122114B9A6710BD0F4B5A6E0F4B910057
S1131B30881880001818046C646804648918890083
S1131B40030044339C4208D0084993009B189B002F
S1131B50CB181B6CDB68CB62E5E760680B000349BC
S1131B60CB181864F0E7C046DC3F00205C3F00203F
S1131B7070B50C00002810D00C4DE96A18310C4BDC
S1131B809847E86A04300B4B9847631C07D0074B0F
S1131B90186B2018084B984770BD72B6FEE70348CF
S1131BA0C16A0431054B9847F6E7C0465C3F002004
S1131BB03F0E00006D0E000045150000270E0000CA
S1131BC070B50D00002801D172B6FEE7064CE16A3B
S1131BD01831064B9847E06A0430054B9847206B50
S1131BE04019044B984770BD5C3F0020270E00004D
S1131BF06D0E00004515000070B5C368DC68002C4C
S1131C0028D0250018352800164B9847164BDB6E54
S1131C10002B21D1251D2800124B9847E36A124A54
S1131C20526E934201D9104A53669800C3189B0020
S1131C300E483C30C01829000D4B98470B4BDB6A0B
S1131C40E26ADB6A00209A4203D90122064B9A67B2
S1131C50013070BD72B6FEE7290004481430044B0D
S1131C609847EBE76D0E0000DC3F00205C3F00204E
S1131C70270E0000002806D0044B1B6F0360044BA2
S1131C801B6B4360704772B6FEE7C046DC3F002022
S1131C905C3F002070B504000E0000281AD0002913
S1131CA01AD0134B9847134B1A6B3368591C1DD029
S1131CB01149096F2068884203D0012561688A426E
S1131CC004D26168501A0125834207D80B4B984708
S1131CD0280070BD72B6FEE772B6FEE79B1A5B1869
S1131CE033602000064B98470025EFE70025EDE719
S1131CF0790C00005C3F0020DC3F0020910C0000C8
S1131D00751C00000122014B9A677047DC3F0020DC
S1131D10014BD86A7047C0465C3F0020054BDB6D21
S1131D200120002B04D0034BD86E4342584140009D
S1131D307047C046DC3F002070B5041E1BD0C16A4A
S1131D40194BDB6ADB6A994215D28369002B05DBE8
S1131D50154BDB6ADA6A05239B1A83618B005918D9
S1131D608900114B3C335B1862699A4204D00E4BD4
S1131D70DB6ADB6AE36270BD251D28000B4B9847C4
S1131D80094BDB6ADA6AE262094B5B6E9A4201D95B
S1131D90074B5A6690008218920003483C30801822
S1131DA02900044B9847E6E75C3F00206D0E0000D5
S1131DB0DC3F0020270E000070B5041E1ED0C36A4D
S1131DC0C26B93421AD0051D28000D4B9847E06B57
S1131DD0E062A369002B02DB05231B1AA361094BF4
S1131DE05B6E984201D9074B586682001218920024
S1131DF005483C3080182900044B984770BDC04604
S1131E006D0E0000DC3F00205C3F0020270E000028
S1131E1010B54160006191420BD8D21A0124836944
S1131E209A4211D2011D094B1868094B98470024A6
S1131E300AE09A4202D20124994205D2011D034BC1
S1131E405868034B98470024200010BD58400020D8
S1131E503F0E0000F8B5104B9847104B9B68002BC1
S1131E6002D00F4B9847F8BD0C4C26000C363000BE
S1131E700C4FB847250020352800B8476660256018
S1131E8000220C210220084B9847002802D0034B63
S1131E909860E6E772B6FEE7790C0000584000202F
S1131EA0910C00000B0E0000B510000010B584B0BA
S1131EB00B4B98470B4B9B68002B0FD000230393CD
S1131EC002930193023300930023502206490748EA
S1131ED0074CA047002801D004B010BD72B6FEE73D
S1131EE0551E00005840002068260000092000000C
S1131EF08915000030B585B01D00134B9C68002C7B
S1131F0020D0019102920390052913DC0F4B9847CE
S1131F10022807D00C4B98680023002201A90C4C1E
S1131F20A0470DE0084B98680023089A01A9084CC3
S1131F30A04705E000232A0001A92000054CA04782
S1131F4005B030BD0020FBE7584000201D1D0000F7
S1131F500511000079120000F0B5D6464F464646FA
S1131F60C0B582B08146234B98478046224B5B6BB9
S1131F70984217D300234A4613601F4B42465A63C4
S1131F80404602B01CBC90469946A246F0BD0023D0
S1131F900093524600212000184CA047002803D18A
S1131FA072B6FEE7144E164F73681A68002A18D0EA
S1131FB0DB681A689246DC68251D2800B8472000B3
S1131FC0636A9847E369012BEED1A36953449A45A8
S1131FD0DDD263602461084B58682900094B984797
S1131FE0E2E7054A11685160136001234A46136011
S1131FF0C3E7C046D117000058400020F51E00007A
S11320006D0E00003F0E0000F0B589B0504F514BEB
S11320105B681A68002A00D18CE0DB681D684E4BAF
S1132020984705A84D4B98470400059B002B00D00A
S11320308BE0A84225D2291B464B9868484B984709
S1132040484B9847002840D0424D474C002300227B
S113205005A9A868A0470028D9D0059B0393002BA5
S1132060F4DB079E7369002B01D0301DB84704A828
S11320703A4B9847059B092BE8D89B003B4AD35819
S11320809F46384B9847334B5B68DB68DE68301DEE
S11320902F4B9847F369012B03D0736A300098479C
S11320A0D2E7B369E9182B0022003000304CA04776
S11320B00128F2D1002300932A00002130002D4C86
S11320C0A0470028E9D172B6FEE72B4B9847BBE73F
S11320D0069BB269944663441900069B02003000D3
S11320E0234CA0470128B0D13000736A9847F369A4
S11320F0012BAAD1069BB1698C4663441A000023C4
S11321000093002130001B4CA04700289DD172B6DB
S1132110FEE70699B161002906D0411803000200C8
S11321203000134CA04790E772B6FEE73000134B23
S113213098478AE7084B984705A8084B9847040036
S11321400025059B002B00D175E7064B98477BE7DC
S11321506D0E000058400020C1170000591F0000F8
S1132160C9140000011900004113000040260000BA
S1132170111E0000F51E0000610C0000010E00009D
S11321807047C046002B11D1002A0FD1002900D17D
S1132190002802D00021C943081C07B4024802A148
S11321A04018029003BDC046D9FFFFFF03B4684640
S11321B001B5029800F006F8019B9E4602B00CBCE3
S11321C07047C046F0B557464E464546DE46E0B534
S11321D0040083B00D00924699468B422FD82CD030
S11321E04946504600F0AEF829000600200000F0F1
S11321F0A9F8331A9846203B9B4600D574E0534611
S11322005A4693401F005346424693401E00AF4235
S113221029D826D05B46A41BBD41002B00DA79E007
S1132220002200230092019301235A469340019314
S1132230012342469340009319E08242D0D9002200
S11322400023009201930C9B002B01D01C605D6065
S11322500098019903B03CBC90469946A246AB460F
S1132260F0BDA342D6D90022002300920193434635
S1132270002BE8D0FB0772081A4346467B080EE0A1
S1132280AB4201D1A2420CD8A41A9D4101202419C9
S11322906D410021013E24184D41002E06D0AB4271
S11322A0EED9013E24196D41002EF8D15B46009809
S11322B0019900196941002B22DB2B005A46D340B7
S11322C02A004446E2401C005B461500002B2CDB30
S11322D026009E40330026004746BE403200801A46
S11322E0994100900191AEE7424620239B1A524641
S11322F0DA40414613004A468A4017001F4382E7EA
S1132300424620239B1A2A0046469A402300F34063
S11323101343D5E74246202300219B1A0022009153
S113232001920122DA40019282E7424620232600EC
S11323309B1ADE402F00B446974066463B00334369
S1132340C9E7C04610B5002903D100F007F82030D2
S113235002E0081C00F002F810BDC0461C21012355
S11323601B04984201D3000C10391B0A984201D374
S1132370000A08391B09984201D30009043902A252
S1132380105C40187047C0460403020201010101B9
S1132390000000000000000070B50D4E0D4D00243B
S11323A0AD1BAD1005D0A300F35801349847A542E6
S11323B0F9D100F05FF9084E084D0024AD1BAD10B3
S11323C005D0A300F35801349847A542F9D170BD54
S11323D08026000080260000802600008826000059
S11323E0F0B505000F2A2FD90B0003439B0734D106
S11323F016000C000300103E350901352D01451966
S113240027681F6067685F60A7689F60E76810348B
S1132410DF6010339D42F3D10F239E43103685199C
S113242089191340032B1AD91E1F0023B408013441
S1132430A400CF58EF500433A342FAD10324A64397
S1132440331D2240C918ED18002A05D00023CC5CA6
S1132450EC5401339342FAD1F0BD0500F6E71A00BB
S1132460F2E7C046034B10B5002B02D0024800F03F
S113247005F810BD000000008D24000010B5010017
S113248000230022002000F01FF810BD70B5094B96
S1132490094CE41AA41009D0084AA518AD00ED1897
S11324A02B68013C9847043D002CF9D100F0ECF86E
S11324B070BDC0469426000098260000FFFFFF3F31
S11324C07047C0467047C046F0B54E464546DE46A6
S11324D05746E0B5364D83B00600286898460F008D
S11324E09146FFF7EDFF334B1C68A4235B00E058D3
S11324F0002852D043681F2B13DC5A1C0192002E73
S113250028D1019A02339B0042601F502868FFF7CC
S1132510D9FF002003B03CBC90469946A246AB4686
S1132520F0BD254B002B3DD0C820400000E000BF8B
S1132530002837D0A42200235200A1584360016030
S1132540A05040328350043283500133019300235E
S1132550002ED6D09A00924682444A468821544698
S11325606250C4225200914681444A4687399940B8
S113257012688B460A4394464A4661461160842297
S113258041465200A150022EBBD102005C468D325E
S1132590FF3211680C431460B3E720004D30FF3064
S11325A0E050A7E72868FFF78DFF01204042B1E71C
S11325B070040020702600000000000025642564DB
S11325C02F256425642F3230256425642F000000F4
S11325D0256425643A256425643A256425642050DD
S11325E04D0A0000256425643A256425643A25646F
S11325F0256420414D0A0000256425643A2564259C
S1132600643A256425642F0A000000002564000054
S113261052544370756C6C0054696D657374616DCC
S11326207073656E6400000053657269616C70724A
S1132630696E7400C00001D349444C450000000099
S1132640D0200000D0200000D02000004C2000004A
S1132650122100002C210000D0200000D020000016
S11326604C20000012210000546D72205376630048
S113267048000020F8B5C046F8BC08BC9E46704728
S113268065240000DD000000F8B5C046F8BC08BCB5
S10B26909E467047B5000000EE
S10B26982CFBFF7F0100000090
S11326A040420F009D4000209B400020A440002099
S11326B090400020A740002091400020A24000202C
S11326C095400020A5400020994000209A40002019
S11326D0A3400020A6400020A1400020AAAAAAAA44
S11326E0FFFFFFFF00000000000000003403002093
S11326F09C030020040400200000000000000000EF
S113270000000000000000000000000000000000C5
S113271000000000000000000000000000000000B5
S113272000000000000000000000000000000000A5
S11327300000000000000000000000000000000095
S11327400000000000000000000000000000000085
S11327500000000000000000000000000000000075
S11327600000000000000000000000000000000065
S11327700000000000000000000000000000000055
S11327800000000000000000000000000000000045
S113279001000000000000000E33CDAB34126DE6E2
S11327A0ECDE05000B00000000000000000000004B
S11327B00000000000000000000000000000000015
S11327C00000000000000000000000000000000005
S11327D000000000000000000000000000000000F5
S11327E000000000000000000000000000000000E5
S1072B10B4400020A9
S9030000FC
